:0400000007EF00F016
:0A000800658201ED08F0B1EF0DF084
:1010000000000600FACF55F0FBCF56F0F2A80BEF28
:1010100008F00DEF08F016EF08F0F2A212EF08F05A
:1010200014EF08F016EF08F078EC0EF0F0A61BEFC6
:1010300008F01DEF08F026EF08F0F0A022EF08F00E
:1010400024EF08F026EF08F076EC0EF0F0A82BEF76
:1010500008F02DEF08F036EF08F0F0A232EF08F0BC
:1010600034EF08F036EF08F074EC0EF0F2AA3BEF24
:1010700008F03DEF08F046EF08F0F2A442EF08F068
:1010800044EF08F046EF08F008EC0EF0F2A64BEF44
:1010900008F04DEF08F068EF08F0F2A052EF08F00A
:1010A00054EF08F068EF08F081A859EF08F05BEF03
:1010B00008F068EF08F02304D8A461EF08F063EFAC
:1010C00008F068EF08F0000E236E000E65EC0EF0DD
:1010D000F2A66DEF08F06FEF08F08AEF08F0F2A0CB
:1010E00074EF08F076EF08F08AEF08F081B87BEF34
:1010F00008F07DEF08F08AEF08F02350D8A483EFC2
:1011000008F085EF08F08AEF08F0010E236E010E5B
:1011100065EC0EF0F2A68FEF08F091EF08F0ACEF5F
:1011200008F0F2A096EF08F098EF08F0ACEF08F0A6
:1011300081AA9DEF08F09FEF08F0ACEF08F02204C1
:10114000D8A4A5EF08F0A7EF08F0ACEF08F0000E68
:10115000226E000E58EC0EF0F2A6B1EF08F0B3EFDD
:1011600008F0CEEF08F0F2A0B8EF08F0BAEF08F000
:10117000CEEF08F081BABFEF08F0C1EF08F0CEEF74
:1011800008F02250D8A4C7EF08F0C9EF08F0CEEF5E
:1011900008F0010E226E010E58EC0EF0F2A6D3EF0D
:1011A00008F0D5EF08F0F0EF08F0F2A0DAEF08F061
:1011B000DCEF08F0F0EF08F081ACE1EF08F0E3EFCE
:1011C00008F0F0EF08F02104D8A4E9EF08F0EBEF05
:1011D00008F0F0EF08F0000E216E000E4BEC0EF060
:1011E000F2A6F5EF08F0F7EF08F012EF09F0F2A021
:1011F000FCEF08F0FEEF08F012EF09F081BC03EFFE
:1012000009F005EF09F012EF09F02150D8A40BEF17
:1012100009F00DEF09F012EF09F0010E216E010E39
:101220004BEC0EF0F2A617EF09F019EF09F034EFCE
:1012300009F0F2A01EEF09F020EF09F034EF09F0F9
:1012400081AE25EF09F027EF09F034EF09F0200413
:10125000D8A42DEF09F02FEF09F034EF09F0000EBC
:10126000206E000E3EEC0EF0F2A639EF09F03BEFD7
:1012700009F056EF09F0F2A040EF09F042EF09F053
:1012800056EF09F081BE47EF09F049EF09F056EF3C
:1012900009F02050D8A44FEF09F051EF09F056EFB4
:1012A00009F0010E206E010E3EEC0EF056C0FBFF61
:1012B00055C0FAFF659211008DEC0DF0010E5F6EC6
:1012C000020EEBEC0DF0646E1FC057F0586A000E72
:1012D0005A6E0A0E596E18EC0BF057505F6E000EE6
:1012E000EBEC0DF0646E1A0E636EF80EE82EFED76E
:1012F000632EFCD700D0020E5F6E020EEBEC0DF0F9
:10130000646E1FC057F0586A000E5A6E0A0E596E6E
:10131000D6EC0BF057505F6E000EEBEC0DF0646EE8
:101320001A0E636EF80EE82EFED7632EFCD700D09F
:101330004F50D8A49EEF09F0A0EF09F0B8EF09F0E4
:10134000340E5F6EF0EC0CF0646E1F50D8A4ABEF5F
:1013500009F0ADEF09F0F9EF09F0340E5F6E2AECF9
:101360000DF0646E050E1F6E010E4F6E5EEF09F0FC
:101370004F04D8A4BEEF09F0C0EF09F0D8EF09F090
:10138000330E5F6EF0EC0CF0646E1F50D8A4CBEF00
:1013900009F0CDEF09F05EEF09F0330E5F6E2AEC35
:1013A0000DF0646E0A0E1F6E020E4F6E5EEF09F0B6
:1013B000020E4F18D8A4DFEF09F0E1EF09F05EEF5D
:1013C00009F0320E5F6EF0EC0CF0646E1F50D8A482
:1013D000ECEF09F0EEEF09F0F9EF09F0320E5F6E75
:1013E0002AEC0DF0646E0A0E1F6E000E4F6E5EEF5B
:1013F00009F05EEF09F007EF00F0010E5D6E575047
:10140000D8B405EF0AF007EF0AF017EF0AF05750CB
:10141000D96EDA6ADF30E832E832070B586E070E11
:10142000586415EF0AF017EF0AF06EEF0AF0000E9D
:101430005D6E8EEF0AF05750D96EDA6ADF30E8320F
:10144000E832070B586E010E596E582A2AEF0AF03F
:10145000D8905936582E28EF0AF05950FF0A5A6E84
:101460005750D96EDA6ADF50070B020DF350150F93
:10147000D96EDA6ADECF5BF0DDCF5CF05BC0D9FFFE
:101480005CC0DAFF5A50DF168EEF0AF05750D96E63
:10149000DA6ADF30E832E832070B586E010E596E17
:1014A000582A55EF0AF0D8905936582E53EF0AF0C3
:1014B0005750D96EDA6ADF50070B020DF350150F43
:1014C000D96EDA6ADECF5AF0DDCF5BF05AC0D9FFB1
:1014D0005BC0DAFF5950DF128EEF0AF05750D96E19
:1014E000DA6ADFBC76EF0AF079EF0AF0010E7AEFE4
:1014F0000AF0000E586E596A5950000AD8B483EFAA
:101500000AF017EF0AF05850000AD8B41BEF0AF09F
:10151000010AD8B446EF0AF017EF0AF05D50120046
:10152000010E5E6E5750D8B498EF0AF09AEF0AF0A9
:10153000AAEF0AF05750D96EDA6ADF30E832E832A3
:10154000070B596E070E5964A8EF0AF0AAEF0AF0CC
:1015500001EF0BF0000E5E6E16EF0BF05750D96ED8
:10156000DA6ADF30E832E832070B596E010E5A6E44
:10157000592ABDEF0AF0D8905A36592EBBEF0AF01F
:101580005A50FF0A5B6E5750D96EDA6ADF50070B6C
:10159000020DF3500B0FD96EDA6ADECF5CF0DDCFAF
:1015A0005DF05CC0D9FF5DC0DAFF5B50DF1616EF5F
:1015B0000BF05750D96EDA6ADF30E832E832070BA9
:1015C000596E010E5A6E592AE8EF0AF0D8905A3631
:1015D000592EE6EF0AF05750D96EDA6ADF50070B42
:1015E000020DF3500B0FD96EDA6ADECF5BF0DDCF60
:1015F0005CF05BC0D9FF5CC0DAFF5A50DF1216EF17
:101600000BF05850596E5A6A5A50000AD8B40BEF72
:101610000BF0AAEF0AF05950000AD8B4AEEF0AF066
:10162000010AD8B4D9EF0AF0AAEF0AF05E5012000E
:10163000000E5C6E5ABE21EF0BF01FEF0BF027EF90
:101640000BF0596C5A1ED8B05A2A010E5C6E58BE67
:101650002EEF0BF02CEF0BF034EF0BF0576C581E05
:10166000D8B0582A010E5C1A000E5E6E000E5D6E38
:1016700059505A10D8B43FEF0BF041EF0BF069EF1F
:101680000BF0010E5B6E49EF0BF0D89059365A36CD
:101690005B2A5AAE4EEF0BF050EF0BF045EF0BF01C
:1016A000D8905D365E365950575C5A505858D8A07D
:1016B0005CEF0BF05EEF0BF063EF0BF05950575EF1
:1016C0005A50585A5D80D8905A3259325B2E50EF9A
:1016D0000BF05C50D8B46FEF0BF071EF0BF075EFBF
:1016E0000BF05D6C5E1ED8B05E2A5DC057F05EC028
:1016F00058F012005F50D8A480EF0BF082EF0BF08F
:1017000086EF0BF0000E606ED4EF0BF05FC057F069
:10171000FDEC09F0606E5FC057F05F50D96EDA6A79
:10172000000EDFBE010E586E90EC0AF0606E5F286E
:10173000576EFDEC09F0606E5F28576E5F50D96EF2
:10174000DA6A010ED926000EDFBE010E586E90EC4B
:101750000AF0606E5F50020F576EFDEC09F0606E8C
:101760005F50020F576E5F50D96EDA6A020ED926AB
:10177000000EDFBE010E586E90EC0AF0606E5F50F6
:10178000030F576EFDEC09F0606E5F50030F576E4C
:101790005F50D96EDA6A030ED926000EDFBE010E45
:1017A000586E90EC0AF0606E60501200000E5C6E95
:1017B00058BEDFEF0BF0DDEF0BF0E5EF0BF0576CF1
:1017C000581ED8B0582A010E5C6E5ABEECEF0BF0D2
:1017D000EAEF0BF0F0EF0BF0596C5A1ED8B05A2A12
:1017E00059505A10D8B4F7EF0BF0F9EF0BF01DEF8A
:1017F0000CF0010E5B6E01EF0CF0D89059365A36A2
:101800005B2A5AAE06EF0CF008EF0CF0FDEF0BF080
:101810005950575C5A505858D8A011EF0CF013EF9C
:101820000CF017EF0CF05950575E5A50585AD89098
:101830005A3259325B2E08EF0CF05C50D8B423EFCB
:101840000CF025EF0CF029EF0CF0576C581ED8B0B7
:10185000582A57C057F058C058F01200010E5C6E5D
:101860005950D8A436EF0CF038EF0CF03CEF0CF0E8
:10187000000E5C6E73EF0CF0D59E59C057F064EC0F
:101880000DF059C057F0B5EC0CF059C057F0CEEC44
:101890000DF05950D96EDA6A040ED926DECF5AF00F
:1018A000DDCF5BF05BC05AF05B6A5A50D76E59507F
:1018B000D96EDA6A040ED926DF50D66E5950D96E29
:1018C000DA6A040ED926DECF35F0DDCF36F0F28AA3
:1018D000F2945950D96EDA6ADECF37F0DDCF38F0A6
:1018E000F28EF28CD58E5C501200010E616E5F504C
:1018F000D8A47DEF0CF07FEF0CF083EF0CF0000E1E
:10190000616EB3EF0CF053C062F05F50D96EDA6ACB
:10191000DF500F0B606E62506018F80B6018626E3B
:101920005F50D96EDA6ADF38070B606E604660463A
:10193000604662506018C70B6018626E629C5F5010
:10194000D96EDA6ADFAE02D0628E01D0629E620E7C
:10195000576EFDEC09F0620E576E000E62BE010E6E
:10196000586E90EC0AF0615012005750D96EDA6A46
:10197000060ED926DFA4BFEF0CF0C1EF0CF0C4EFC8
:101980000CF0D59AEFEF0CF05750D96EDA6A060ECC
:10199000D926DFB4CEEF0CF0D0EF0CF0EFEF0CF067
:1019A000D58A5750D96EDA6A060ED926DFA2DBEF48
:1019B0000CF0DDEF0CF0E0EF0CF0D598EFEF0CF051
:1019C0005750D96EDA6A060ED926DFB2EAEF0CF06C
:1019D000ECEF0CF0EFEF0CF0D588EFEF0CF012000D
:1019E000010E616E5F50D8A4F8EF0CF0FAEF0CF026
:1019F000FEEF0CF0000E616E28EF0DF052C062F0A9
:101A00005F50D96EDA6ADF500F0B606E625060185B
:101A1000F80B6018626E5F50D96EDA6ADF38070B18
:101A2000606E60466046604662506018C70B601882
:101A3000626E629C5F50D96EDA6ADFAE02D0628E4F
:101A400001D0629E620E576E010E586E90EC0AF045
:101A500061501200010E616E5F50D8A432EF0DF09C
:101A600034EF0DF038EF0DF0000E616E62EF0DF007
:101A700051C062F05F50D96EDA6ADF500F0B606EB2
:101A800062506018F80B6018626E5F50D96EDA6AA7
:101A9000DF38070B606E6046604660466250601833
:101AA000C70B6018626E629C5F50D96EDA6ADFAE57
:101AB00002D0628E01D0629E620E576E000E586E8A
:101AC00090EC0AF0615012005750D96EDA6A060E97
:101AD000D926DFA06EEF0DF070EF0DF07FEF0DF067
:101AE000D5965750D96EDA6A030ED926DF50586E54
:101AF000D5505818F80B5818D56E8CEF0DF057507C
:101B0000D96EDA6A060ED926DFB089EF0DF08BEFB9
:101B10000DF08CEF0DF0D5861200340E5F6E75EC73
:101B20000CF0646E330E5F6E75EC0CF0646E320E6A
:101B30005F6E75EC0CF0646E2B0E5F6E7AEC0BF042
:101B4000646E240E596E2EEC0CF0646E310E576EDE
:101B5000FDEC09F0646E300E576EFDEC09F0646E1A
:101B60001200480EF66E1C0EF76E000EF86E00EEB8
:101B700001F010EE34F00900F5CFEEFFE550E15032
:101B8000FAE100EE35F01F0EEE6AE806FDE1659021
:101B90006592000EF86E00015CEF09F05750D96EA7
:101BA000DA6A060ED926DFA6D8EF0DF0DAEF0DF0CF
:101BB000DDEF0DF0D58CEAEF0DF05750D96EDA6AF3
:101BC000060ED926DFB6E7EF0DF0E9EF0DF0EAEFEC
:101BD0000DF0D59C1200626E040E6264F2EF0DF0FF
:101BE000F4EF0DF0F6EF0DF006EF0EF06250020D7F
:101BF000F3500B0FD96EDA6ADECF60F0DDCF61F003
:101C000060C0D9FF61C0DAFF5FC0DFFF010E1200C4
:101C1000F2943650D76E35C0D6FF37503810D8B44E
:101C200014EF0EF016EF0EF023EF0EF002D823EFB4
:101C30000EF00500FA6E3750FD6E3850FE6EF8500B
:101C4000FF6EFA5012001200800F810F820F830F77
:101C5000840F890F8A0F8B0F8C0F8D0F920F930FAC
:101C6000940F950F960F0A01010101E41C0004DC9A
:101C70000B0500081018000A02231303546EF2909B
:101C80005450D8A446EF0EF048EF0EF04AEF0EF095
:101C90004AEF0EF01200546EF2905450D8A453EF55
:101CA0000EF055EF0EF057EF0EF057EF0EF012005A
:101CB000546EF2905450D8A460EF0EF062EF0EF024
:101CC00064EF0EF064EF0EF01200546EF290545078
:101CD000D8A46DEF0EF06FEF0EF071EF0EF071EF14
:101CE0000EF012001F061200F0921200F090120087
:041CF000F29212005A
:00000001FF
